:1000000012C02CC02BC02AC029C028C027C026C0BF
:1000100025C09FC023C022C021C020C01FC01EC059
:100020001DC01CC01BC011241FBECFE5D4E0DEBF25
:10003000CDBF10E0A0E6B0E0E2E6FEE002C0059031
:100040000D92A638B107D9F720E0A6E8B0E001C0CC
:100050001D92AB38B207E1F707D501C7D1CF80E0D9
:1000600084D264E082E468D265E082E4E3D083E491
:1000700070D1A2D3BFD3BCD342E064E482E463D2A4
:1000800043E064E482E45FD261E082E4D9C0CF93CC
:10009000DF9362E082E464D263E082E463D2809121
:1000A00088009091890064E670E0E1D4FB01E05A99
:1000B000FF4F608184E458D260E070E080E890E413
:1000C000A3D362E082E44ED263E082E449D280911D
:1000D000880090918900CAE0D0E0BE01C8D4CB016D
:1000E000BE01C5D4FC01E05AFF4F608184E43CD2DC
:1000F00060E070E080E890E487D380918800909180
:10010000890064E088369140B8F082E417D265E057
:1001100082E492D080918800909189008E3F914036
:1001200010F044E611C08091880090918900BE01D2
:100130009ED4462F440F08C082E402D265E082E4D8
:100140007DD010928A0040E061E082E4DF91CF919F
:1001500080C01F920F920FB60F9211242F933F93DE
:100160004F935F936F937F938F939F93AF93BF93BF
:10017000EF93FF938091860090918700883C9105D2
:10018000F9F461E083E488D04AE650E060E883E473
:100190007DD180918800909189006AE070E067D4F9
:1001A00083E492D148E750E060EC83E46FD1609142
:1001B0008A0070E083E488D1109287001092860054
:1001C00080E0E5D1909389008093880061E082E42B
:1001D0004BD080938A008091860090918700019691
:1001E0009093870080938600FF91EF91BF91AF912C
:1001F0009F918F917F916F915F914F913F912F913F
:100200000F900FBE0F901F9018951F93CF93DF9301
:10021000C82FD62F142F40E0FCD1113031F46D2FB0
:100220008C2FDF91CF911F91B2C2DF91CF911F919F
:100230000895ADC241E0EDC141E038C240E036C2B0
:10024000823431F48FEF860F823010F4862FCEC3C4
:100250000895962F823439F48FEF860F823018F488
:10026000642F892FE2C30895823499F4613029F014
:10027000623079F468B579B502C06AB57BB580E0C3
:1002800090E0ECD424E13EEA43E251E419D4BAD43C
:1002900001C060E0862F0895CF93DF93C82FD62F3B
:1002A00040E061E003D2D4FB442740F963E08C2FA7
:1002B000FDD1D5FB442740F964E08C2FF7D1D6FB64
:1002C000442740F965E08C2FF1D14D2F441F44277E
:1002D000441F66E08C2FEAD141E062E08C2FE6D12A
:1002E00060E070E080E89FE308D340E062E08C2F9C
:1002F000DDD160E070E080E89FE386D24D2F417051
:1003000063E08C2FD3D1D1FB442740F964E08C2FDC
:10031000CDD1D2FB442740F965E08C2FC7D1D3FB68
:10032000442740F966E08C2FC1D141E062E08C2F78
:10033000BDD160E070E080E89FE3DFD240E062E0A2
:100340008C2FB4D160E070E080E89FE3DF91CF9123
:100350005BC2CF93C82F41E061E05BD141E062E036
:100360008C2F57D141E063E08C2F53D141E064E002
:100370008C2F4FD141E065E08C2F4BD141E066E0FE
:100380008C2F47D160E070E080E890E43DD263E0DC
:100390008C2F82DF60E070E08CE192E4AED262E00C
:1003A0008C2F7ADF68E28C2F77DF60E070E084E1E9
:1003B00092E4A3D261E08C2F6FDF66E08C2F6CDFBC
:1003C0006CE08C2F69DF6AE077ED83EC9FE3CF91DF
:1003D0001BC2CF93DF93C82FD62F41E061E066D1D7
:1003E000D4FB442740F963E08C2F60D1D5FB442730
:1003F00040F964E08C2F5AD1D6FB442740F965E0E0
:100400008C2F54D14D2F441F4427441F66E08C2F5E
:100410004DD141E062E08C2F49D160E070E080E88E
:100420009FE36BD240E062E08C2F40D160E070E04F
:1004300080E89FE3E9D14D2F417063E08C2F36D1E6
:10044000D1FB442740F964E08C2F30D1D2FB442704
:1004500040F965E08C2F2AD1D3FB442740F966E0B0
:100460008C2F24D141E062E08C2F20D160E070E03D
:1004700080E89FE342D240E062E08C2F17D160E039
:1004800070E080E89FE3DF91CF91BEC10F931F938F
:10049000CF93DF93D82F8A01603821F48D2FFCDEB3
:1004A000C0E003C0603CE1F7F9CFF801EC0FF11DAB
:1004B0006081662321F08D2F8CDFCF5FF6CFDF9137
:1004C000CF911F910F9108950F931F93CF93DF93B7
:1004D00000D000D01F92CDB7DEB7082FCB0110E0BF
:1004E0002AE030E0009779F0E1E0F0E0EC0FFD1F4A
:1004F000E10FF11D17FDFA95B901B9D2805D808336
:10050000CB011F5FEFCF115017FD0CC0E1E0F0E011
:10051000EC0FFD1FE10FF11D17FDFA956081802F93
:1005200058DFF1CF0F900F900F900F900F90DF9149
:10053000CF911F910F91089541E06BC041E0B6C08B
:1005400040E0B4C000C1CF93DF93C82F862FD42FD3
:100550006FEF27D041E06D2F8C2FDF91CF9159C0E5
:1005600040E0A4C041E0A2C028C094B321E030E044
:1005700001C0220F8A95EAF72095292324BB3E9AD1
:100580003F98379A359A309A319A329A089597B1AE
:10059000907F892B87B9369A3699FECF84B195B171
:1005A0000895833431F0843431F0823429F467BB08
:1005B000089564BB089561BB0895833431F0843499
:1005C00031F0823429F468BB089565BB089562BB9D
:1005D0000895833441F0843451F0823459F488B35F
:1005E000809588BB089585B3809585BB089582B3B7
:1005F000809582BB0895833431F0843431F08234A5
:1006000031F486B3089583B3089580B3089580E0EC
:100610000895413011F5833471F08434A9F08234A7
:1006200009F043C027B381E090E001C0880F6A95CC
:10063000EAF7822B23C024B381E090E001C0880F49
:100640006A95EAF7822B25C021B381E090E001C0D2
:10065000880F6A95EAF7822B27C0411126C08334A0
:1006600079F08434C1F0823401F527B381E090E061
:1006700001C0880F6A95EAF78095822387BB0895A9
:1006800024B381E090E001C0880F6A95EAF7809575
:10069000822384BB089521B381E090E001C0880FDC
:1006A0006A95EAF78095822381BB0895413011F560
:1006B000833471F08434A9F0823409F043C028B344
:1006C00081E090E001C0880F6A95EAF7822B23C091
:1006D00025B381E090E001C0880F6A95EAF7822B8C
:1006E00025C022B381E090E001C0880F6A95EAF747
:1006F000822B27C0411126C0833479F08434C1F0A5
:10070000823401F528B381E090E001C0880F6A953A
:10071000EAF78095822388BB089525B381E090E0B5
:1007200001C0880F6A95EAF78095822385BB0895FA
:1007300022B381E090E001C0880F6A95EAF78095C6
:10074000822382BB0895833471F08434B1F0823403
:10075000E9F428B381E090E001C0880F6A95EAF7D8
:10076000822788BB089525B381E090E001C0880FFF
:100770006A95EAF7822785BB089522B381E090E06D
:1007800001C0880F6A95EAF7822782BB08958334F7
:1007900031F0843431F0823469F486B303C083B31A
:1007A00001C080B390E002C0959587956A95E2F705
:1007B0008170089580E008958FB780688FBF089595
:1007C0008A9A929A8BB780648BBF85B78E7F85BFDC
:1007D00085B7826085BF08958B9A939A8BB780689E
:1007E0008BBF85B78B7F85BF85B7886085BF089530
:1007F00013BE089589B7816089BF83B7816083BFC5
:1008000083B7826083BF08952F923F924F925F9289
:100810006F927F928F929F92AF92BF92CF92DF9210
:10082000EF92FF920F931F93CF93DF9300D000D0EE
:10083000CDB7DEB720E030E04AE754E441D12DEBFC
:1008400037E346E85AE33CD1A8D1322E432E542E4A
:10085000652E762E872E89839A8383B7816083BF26
:1008600083B7826083BF1C821B82B0E0A0E0F0E00F
:10087000E0E0212C912C2C813B814B2F5A2F6F2FA4
:100880007E2F822D992DA32CB42CC52CD62CE72C91
:10089000F82C09811A810BD1C9F008B600FEFDCFF2
:1008A00088B7816088BF2C813B814B2F5A2F6F2FD7
:1008B0007E2F822D992DA1E0EED02C833B83B42F87
:1008C000A52FF62FE72F282E992ED5CF0F900F901A
:1008D0000F900F90DF91CF911F910F91FF90EF90AC
:1008E000DF90CF90BF90AF909F908F907F906F9050
:1008F0005F904F903F902F9008952F923F924F928C
:100900005F926F927F928F929F92AF92BF92CF929F
:10091000DF92EF92FF920F931F93CF93DF9300D05C
:1009200000D0CDB7DEB720E034E244E759E4C8D0C8
:100930002DEB37E346E85AE3C3D02FD1322E432EB6
:10094000542E652E762E872E89839A8383B78160F5
:1009500083BF83B7826083BF1C821B82B0E0A0E0AC
:10096000F0E0E0E0212C912C2C813B814B2F5A2F81
:100970006F2F7E2F822D992DA32CB42CC52CD62C15
:10098000E72CF82C09811A8192D0C9F008B600FE34
:10099000FDCF88B7816088BF2C813B814B2F5A2FB8
:1009A0006F2F7E2F822D992DA1E075D02C833B8354
:1009B000B42FA52FF62FE72F282E992ED5CF0F90E5
:1009C0000F900F900F90DF91CF911F910F91FF909B
:1009D000EF90DF90CF90BF90AF909F908F907F90DF
:1009E0006F905F904F903F902F9008959FB59F7BA1
:1009F0009FBD9FB590689FBD9FB591609FBD9FB5FE
:100A000092609FBD9EB598609EBD9EB59F7E9EBD27
:100A10009EB591609EBD9EB592609EBD9EB59B7F2A
:100A20009EBD813009F4B99A0895813019F0823061
:100A300071F0089570E080E090E012D124E13EEA88
:100A400043E251E4A9D1DED07BBD6ABD089570E0D8
:100A500080E090E005D124E13EEA43E251E49CD1FC
:100A6000D1D079BD68BD0895FADA11DBFECFAA1B9B
:100A7000BB1B51E107C0AA1FBB1FA617B70710F089
:100A8000A61BB70B881F991F5A95A9F780959095BB
:100A9000BC01CD0108950024A7FD00942A0F301D4C
:100AA000401D501D601D701D801D901D08952A154C
:100AB0003B054C055D056E057F0580079107089590
:100AC0000CD030C128D140F01FD130F021F45F3F6D
:100AD00019F001C151115AC104C135D198F39923BC
:100AE000C9F35523B1F3951B550BBB27AA276217F2
:100AF0007307840738F09F5F5F4F220F331F441F37
:100B0000AA1FA9F333D00E2E3AF0E0E830D091506E
:100B10005040E695001CCAF729D0FE2F27D0660F5B
:100B2000771F881FBB1F261737074807AB07B0E89A
:100B300009F0BB0B802DBF01FF2793585F4F2AF0B0
:100B40009E3F510568F0C7C021C15F3FECF3983E5E
:100B5000DCF3869577956795B795F7959F5FC9F70D
:100B6000880F911D9695879597F90895E1E0660F96
:100B7000771F881FBB1F621773078407BA0720F00F
:100B8000621B730B840BBA0BEE1F88F7E095089578
:100B9000BEE304D008F490E80895BFE3222733278A
:100BA000A901D9D058F19F5740F1B91738F1BFE3E7
:100BB000B91B9927B8503AF4660F771F881F991F01
:100BC000B395D2F316C0B8504AF0232F342F452FD7
:100BD000562F672F782F8827B850BAF7B85F49F09B
:100BE0008695779567955795479537952795BA9543
:100BF000B9F70EF479D088940895889460E070E095
:100C0000CB010895A8D088F09F5790F0B92F99276D
:100C1000B751A0F0D1F0660F771F881F991F1AF007
:100C2000BA95C9F712C0B13081F0AFD0B1E00895E4
:100C3000ACC0672F782F8827B85F39F0B93FCCF365
:100C4000869577956795B395D9F73EF490958095FD
:100C5000709561957F4F8F4F9F4F0895E89409C01D
:100C600097FB3EF490958095709561957F4F8F4FDF
:100C70009F4F9923A9F0F92F96E9BB279395F695F5
:100C8000879577956795B795F111F8CFFAF4BB0F73
:100C900011F460FF1BC06F5F7F4F8F4F9F4F16C0D7
:100CA000882311F096E911C0772321F09EE8872F61
:100CB000762F05C0662371F096E8862F70E060E01D
:100CC0002AF09A95660F771F881FDAF7880F969596
:100CD000879597F9089597F99F6780E870E060E03D
:100CE00008959FEF80EC089590958095709560959C
:100CF00050954095309521953F4F4F4F5F4F6F4F27
:100D00007F4F8F4F9F4F089500240A9416161706A1
:100D100018060906089500240A94121613061406EC
:100D200005060895092E0394000C11F4882352F04F
:100D3000BB0F40F4BF2B11F460FF04C06F5F7F4F07
:100D40008F4F9F4F089557FD9058440F551F59F0EE
:100D50005F3F71F04795880F97FB991F61F09F3FA8
:100D600079F087950895121613061406551FF2CFD1
:100D70004695F1DF08C0161617061806991FF1CF21
:100D800086957105610508940895E894BB27662748
:100D90007727CB0197F908950BD0C4CFB5DF28F0A2
:100DA000BADF18F0952309F096CF9BCF1124EECF30
:100DB000CADFA0F3959FD1F3950F50E0551F629FB6
:100DC000F001729FBB27F00DB11D639FAA27F00DA4
:100DD000B11DAA1F649F6627B00DA11D661F829FCB
:100DE0002227B00DA11D621F739FB00DA11D621FB0
:100DF000839FA00D611D221F749F3327A00D611DCD
:100E0000231F849F600D211D822F762F6A2F1124AE
:100E10009F5750408AF0E1F088234AF0EE0FFF1F01
:100E2000BB1F661F771F881F91505040A9F79E3F38
:100E3000510570F050CFAACF5F3FECF3983EDCF342
:100E4000869577956795B795F795E7959F5FC1F775
:100E5000FE2B880F911D9695879597F90895F89424
:020E6000FFCFC2
:100E62003F065B4F666D7D077F6F54656D706572DF
:100E720061747572653A2000447574792043796310
:060E82006C653A2000003F
:00000001FF
